{
  "abi": [
    {
      "inputs": [
        {
          "internalType": "address",
          "name": "_factory",
          "type": "address"
        },
        {
          "internalType": "address",
          "name": "_l2Sequencer",
          "type": "address"
        }
      ],
      "stateMutability": "nonpayable",
      "type": "constructor"
    },
    {
      "inputs": [],
      "name": "EpochExpired",
      "type": "error"
    },
    {
      "inputs": [],
      "name": "EpochFinishedAlready",
      "type": "error"
    },
    {
      "inputs": [],
      "name": "EpochNotExist",
      "type": "error"
    },
    {
      "inputs": [],
      "name": "EpochNotExpired",
      "type": "error"
    },
    {
      "inputs": [],
      "name": "EpochNotStarted",
      "type": "error"
    },
    {
      "inputs": [],
      "name": "GracePeriodNotOver",
      "type": "error"
    },
    {
      "inputs": [
        {
          "internalType": "uint256",
          "name": "marketId",
          "type": "uint256"
        }
      ],
      "name": "MarketDoesNotExist",
      "type": "error"
    },
    {
      "inputs": [],
      "name": "OraclePriceZero",
      "type": "error"
    },
    {
      "inputs": [
        {
          "internalType": "int256",
          "name": "price",
          "type": "int256"
        }
      ],
      "name": "PriceNotAtStrikePrice",
      "type": "error"
    },
    {
      "inputs": [],
      "name": "RoundIDOutdated",
      "type": "error"
    },
    {
      "inputs": [],
      "name": "SequencerDown",
      "type": "error"
    },
    {
      "inputs": [],
      "name": "VaultNotZeroTVL",
      "type": "error"
    },
    {
      "inputs": [],
      "name": "ZeroAddress",
      "type": "error"
    },
    {
      "anonymous": false,
      "inputs": [
        {
          "indexed": false,
          "internalType": "bytes32",
          "name": "epochMarketID",
          "type": "bytes32"
        },
        {
          "components": [
            {
              "internalType": "uint256",
              "name": "RISK_claimTVL",
              "type": "uint256"
            },
            {
              "internalType": "uint256",
              "name": "RISK_finalTVL",
              "type": "uint256"
            },
            {
              "internalType": "uint256",
              "name": "INSR_claimTVL",
              "type": "uint256"
            },
            {
              "internalType": "uint256",
              "name": "INSR_finalTVL",
              "type": "uint256"
            }
          ],
          "indexed": false,
          "internalType": "struct Controller.VaultTVL",
          "name": "tvl",
          "type": "tuple"
        },
        {
          "indexed": false,
          "internalType": "bool",
          "name": "isDisaster",
          "type": "bool"
        },
        {
          "indexed": false,
          "internalType": "uint256",
          "name": "epoch",
          "type": "uint256"
        },
        {
          "indexed": false,
          "internalType": "uint256",
          "name": "time",
          "type": "uint256"
        },
        {
          "indexed": false,
          "internalType": "int256",
          "name": "depegPrice",
          "type": "int256"
        }
      ],
      "name": "DepegInsurance",
      "type": "event"
    },
    {
      "anonymous": false,
      "inputs": [
        {
          "indexed": false,
          "internalType": "bytes32",
          "name": "epochMarketID",
          "type": "bytes32"
        },
        {
          "components": [
            {
              "internalType": "uint256",
              "name": "RISK_claimTVL",
              "type": "uint256"
            },
            {
              "internalType": "uint256",
              "name": "RISK_finalTVL",
              "type": "uint256"
            },
            {
              "internalType": "uint256",
              "name": "INSR_claimTVL",
              "type": "uint256"
            },
            {
              "internalType": "uint256",
              "name": "INSR_finalTVL",
              "type": "uint256"
            }
          ],
          "indexed": false,
          "internalType": "struct Controller.VaultTVL",
          "name": "tvl",
          "type": "tuple"
        },
        {
          "indexed": false,
          "internalType": "uint256",
          "name": "epoch",
          "type": "uint256"
        },
        {
          "indexed": false,
          "internalType": "uint256",
          "name": "time",
          "type": "uint256"
        }
      ],
      "name": "NullEpoch",
      "type": "event"
    },
    {
      "inputs": [
        {
          "internalType": "address",
          "name": "_token",
          "type": "address"
        }
      ],
      "name": "getLatestPrice",
      "outputs": [
        {
          "internalType": "int256",
          "name": "nowPrice",
          "type": "int256"
        }
      ],
      "stateMutability": "view",
      "type": "function"
    },
    {
      "inputs": [],
      "name": "getVaultFactory",
      "outputs": [
        {
          "internalType": "address",
          "name": "",
          "type": "address"
        }
      ],
      "stateMutability": "view",
      "type": "function"
    },
    {
      "inputs": [
        {
          "internalType": "uint256",
          "name": "marketIndex",
          "type": "uint256"
        },
        {
          "internalType": "uint256",
          "name": "epochEnd",
          "type": "uint256"
        }
      ],
      "name": "triggerDepeg",
      "outputs": [],
      "stateMutability": "nonpayable",
      "type": "function"
    },
    {
      "inputs": [
        {
          "internalType": "uint256",
          "name": "marketIndex",
          "type": "uint256"
        },
        {
          "internalType": "uint256",
          "name": "epochEnd",
          "type": "uint256"
        }
      ],
      "name": "triggerEndEpoch",
      "outputs": [],
      "stateMutability": "nonpayable",
      "type": "function"
    },
    {
      "inputs": [
        {
          "internalType": "uint256",
          "name": "marketIndex",
          "type": "uint256"
        },
        {
          "internalType": "uint256",
          "name": "epochEnd",
          "type": "uint256"
        }
      ],
      "name": "triggerNullEpoch",
      "outputs": [],
      "stateMutability": "nonpayable",
      "type": "function"
    },
    {
      "inputs": [],
      "name": "vaultFactory",
      "outputs": [
        {
          "internalType": "contract VaultFactory",
          "name": "",
          "type": "address"
        }
      ],
      "stateMutability": "view",
      "type": "function"
    }
  ],
  "bytecode": {
    "object": "0x60a06040523480156200001157600080fd5b5060405162002de338038062002de38339810160408190526200003491620000ca565b6001600160a01b0382166200005c5760405163d92e233d60e01b815260040160405180910390fd5b6001600160a01b038116620000845760405163d92e233d60e01b815260040160405180910390fd5b6001600160a01b03918216608052600080546001600160a01b0319169190921617905562000102565b80516001600160a01b0381168114620000c557600080fd5b919050565b60008060408385031215620000de57600080fd5b620000e983620000ad565b9150620000f960208401620000ad565b90509250929050565b608051612c9c6200014760003960008181608f015281816101070152818161021e0152818161056f0152818161124d01528181611bf70152611e7d0152612c9c6000f3fe608060405234801561001057600080fd5b50600436106100625760003560e01c806316345f181461006757806318bcb2841461008d5780632d388e61146100c7578063bcbbcfe4146100dc578063cdfd29b3146100ef578063d8a06f7314610102575b600080fd5b61007a61007536600461277a565b610129565b6040519081526020015b60405180910390f35b7f00000000000000000000000000000000000000000000000000000000000000005b6040516001600160a01b039091168152602001610084565b6100da6100d536600461279e565b610556565b005b6100da6100ea36600461279e565b611234565b6100da6100fd36600461279e565b611e44565b6100af7f000000000000000000000000000000000000000000000000000000000000000081565b60008060008060009054906101000a90046001600160a01b03166001600160a01b031663feaf968c6040518163ffffffff1660e01b815260040160a060405180830381865afa158015610180573d6000803e3d6000fd5b505050506040513d601f19601f820116820180604052508101906101a491906127df565b5091945092505082159050806101cc5760405162032b3d60e81b815260040160405180910390fd5b60006101d88342612845565b9050610e1081116101fc5760405163d15f73b560e01b815260040160405180910390fd5b604051639820c73360e01b81526001600160a01b0387811660048301526000917f000000000000000000000000000000000000000000000000000000000000000090911690639820c73390602401602060405180830381865afa158015610267573d6000803e3d6000fd5b505050506040513d601f19601f8201168201806040525081019061028b9190612867565b90506000806000836001600160a01b031663feaf968c6040518163ffffffff1660e01b815260040160a060405180830381865afa1580156102d0573d6000803e3d6000fd5b505050506040513d601f19601f820116820180604052508101906102f491906127df565b94505050925092506012846001600160a01b031663313ce5676040518163ffffffff1660e01b8152600401602060405180830381865afa15801561033c573d6000803e3d6000fd5b505050506040513d601f19601f820116820180604052508101906103609190612884565b60ff1610156103f7576000846001600160a01b031663313ce5676040518163ffffffff1660e01b8152600401602060405180830381865afa1580156103a9573d6000803e3d6000fd5b505050506040513d601f19601f820116820180604052508101906103cd9190612884565b6103d89060126128a7565b6103e390600a6129b0565b90506103ef81846129bf565b9250506104ef565b836001600160a01b031663313ce5676040518163ffffffff1660e01b8152600401602060405180830381865afa158015610435573d6000803e3d6000fd5b505050506040513d601f19601f820116820180604052508101906104599190612884565b60ff16601203156104ef5760006012856001600160a01b031663313ce5676040518163ffffffff1660e01b8152600401602060405180830381865afa1580156104a6573d6000803e3d6000fd5b505050506040513d601f19601f820116820180604052508101906104ca9190612884565b6104d491906128a7565b6104df90600a6129b0565b90506104eb8184612a44565b9250505b60008213610510576040516315e5656b60e21b815260040160405180910390fd5b8269ffffffffffffffffffff168169ffffffffffffffffffff161015610549576040516346e8c97560e11b815260040160405180910390fd5b5098975050505050505050565b604051630468d16d60e41b8152600481018390526000907f00000000000000000000000000000000000000000000000000000000000000006001600160a01b03169063468d16d090602401600060405180830381865afa1580156105be573d6000803e3d6000fd5b505050506040513d6000823e601f3d908101601f191682016040526105e69190810190612a96565b90506000816000815181106105fd576105fd612b5b565b6020026020010151905060008260018151811061061c5761061c612b5b565b6020026020010151905060006001600160a01b03168360008151811061064457610644612b5b565b60200260200101516001600160a01b0316148061068d575060006001600160a01b03168360018151811061067a5761067a612b5b565b60200260200101516001600160a01b0316145b156106b357604051630fff01a760e31b8152600481018690526024015b60405180910390fd5b6040516305c514ad60e11b8152600481018590526001600160a01b03831690630b8a295a90602401602060405180830381865afa1580156106f8573d6000803e3d6000fd5b505050506040513d601f19601f8201168201806040525081019061071c9190612b71565b158061078e57506040516305c514ad60e11b8152600481018590526001600160a01b03821690630b8a295a90602401602060405180830381865afa158015610768573d6000803e3d6000fd5b505050506040513d601f19601f8201168201806040525081019061078c9190612b71565b155b156107ac5760405163167da24960e31b815260040160405180910390fd5b60405163ea859a2760e01b8152600481018590526001600160a01b0383169063ea859a2790602401602060405180830381865afa1580156107f1573d6000803e3d6000fd5b505050506040513d601f19601f820116820180604052508101906108159190612b93565b421015610835576040516333e7d47160e11b815260040160405180910390fd5b6040516305c514ad60e11b8152600481018590526001600160a01b03831690630b8a295a90602401602060405180830381865afa15801561087a573d6000803e3d6000fd5b505050506040513d601f19601f8201168201806040525081019061089e9190612b71565b158061091057506040516305c514ad60e11b8152600481018590526001600160a01b03821690630b8a295a90602401602060405180830381865afa1580156108ea573d6000803e3d6000fd5b505050506040513d601f19601f8201168201806040525081019061090e9190612b71565b155b1561092e5760405163167da24960e31b815260040160405180910390fd5b604051630b6e8f8960e01b8152600481018590526001600160a01b03831690630b6e8f8990602401602060405180830381865afa158015610973573d6000803e3d6000fd5b505050506040513d601f19601f820116820180604052508101906109979190612b71565b156109b5576040516384938d9f60e01b815260040160405180910390fd5b604051630b6e8f8960e01b8152600481018590526001600160a01b03821690630b6e8f8990602401602060405180830381865afa1580156109fa573d6000803e3d6000fd5b505050506040513d601f19601f82011682018060405250810190610a1e9190612b71565b15610a3c576040516384938d9f60e01b815260040160405180910390fd5b604051639460585760e01b8152600481018590526001600160a01b03831690639460585790602401602060405180830381865afa158015610a81573d6000803e3d6000fd5b505050506040513d601f19601f82011682018060405250810190610aa59190612b93565b600003610cea57604051636164e45d60e01b8152600481018590526001600160a01b03831690636164e45d90602401600060405180830381600087803b158015610aee57600080fd5b505af1158015610b02573d6000803e3d6000fd5b5050604051636164e45d60e01b8152600481018790526001600160a01b0384169250636164e45d9150602401600060405180830381600087803b158015610b4857600080fd5b505af1158015610b5c573d6000803e3d6000fd5b5050604051633e04836560e01b815260048101879052600060248201526001600160a01b0385169250633e0483659150604401600060405180830381600087803b158015610ba957600080fd5b505af1158015610bbd573d6000803e3d6000fd5b505060405163f9db242760e01b8152600481018790526001600160a01b0384169250633e04836591508690839063f9db242790602401602060405180830381865afa158015610c10573d6000803e3d6000fd5b505050506040513d601f19601f82011682018060405250810190610c349190612b93565b6040516001600160e01b031960e085901b16815260048101929092526024820152604401600060405180830381600087803b158015610c7257600080fd5b505af1158015610c86573d6000803e3d6000fd5b5050604051632b56f83160e21b8152600481018790526001600160a01b038416925063ad5be0c491506024015b600060405180830381600087803b158015610ccd57600080fd5b505af1158015610ce1573d6000803e3d6000fd5b50505050610f7e565b604051639460585760e01b8152600481018590526001600160a01b03821690639460585790602401602060405180830381865afa158015610d2f573d6000803e3d6000fd5b505050506040513d601f19601f82011682018060405250810190610d539190612b93565b600003610f6557604051636164e45d60e01b8152600481018590526001600160a01b03831690636164e45d90602401600060405180830381600087803b158015610d9c57600080fd5b505af1158015610db0573d6000803e3d6000fd5b5050604051636164e45d60e01b8152600481018790526001600160a01b0384169250636164e45d9150602401600060405180830381600087803b158015610df657600080fd5b505af1158015610e0a573d6000803e3d6000fd5b505060405163f9db242760e01b8152600481018790526001600160a01b0385169250633e04836591508690839063f9db242790602401602060405180830381865afa158015610e5d573d6000803e3d6000fd5b505050506040513d601f19601f82011682018060405250810190610e819190612b93565b6040516001600160e01b031960e085901b16815260048101929092526024820152604401600060405180830381600087803b158015610ebf57600080fd5b505af1158015610ed3573d6000803e3d6000fd5b5050604051633e04836560e01b815260048101879052600060248201526001600160a01b0384169250633e0483659150604401600060405180830381600087803b158015610f2057600080fd5b505af1158015610f34573d6000803e3d6000fd5b5050604051632b56f83160e21b8152600481018790526001600160a01b038516925063ad5be0c49150602401610cb3565b60405163e077d61f60e01b815260040160405180910390fd5b604080516080810191829052634d288ba760e01b90915260848101859052600090806001600160a01b038416634d288ba760a48301602060405180830381865afa158015610fd0573d6000803e3d6000fd5b505050506040513d601f19601f82011682018060405250810190610ff49190612b93565b8152602001836001600160a01b031663f9db2427886040518263ffffffff1660e01b815260040161102791815260200190565b602060405180830381865afa158015611044573d6000803e3d6000fd5b505050506040513d601f19601f820116820180604052508101906110689190612b93565b8152602001846001600160a01b0316634d288ba7886040518263ffffffff1660e01b815260040161109b91815260200190565b602060405180830381865afa1580156110b8573d6000803e3d6000fd5b505050506040513d601f19601f820116820180604052508101906110dc9190612b93565b8152602001846001600160a01b031663f9db2427886040518263ffffffff1660e01b815260040161110f91815260200190565b602060405180830381865afa15801561112c573d6000803e3d6000fd5b505050506040513d601f19601f820116820180604052508101906111509190612b93565b905260405163ea859a2760e01b8152600481018790529091507f81bee92f7b15f62842e0b331896cec495f23c68126e3c1681aff439f945072c99087906001600160a01b0386169063ea859a2790602401602060405180830381865afa1580156111be573d6000803e3d6000fd5b505050506040513d601f19601f820116820180604052508101906111e29190612b93565b60408051602081019390935282015260608101879052608001604051602081830303815290604052805190602001208287426040516112249493929190612bac565b60405180910390a1505050505050565b604051630468d16d60e41b8152600481018390526000907f00000000000000000000000000000000000000000000000000000000000000006001600160a01b03169063468d16d090602401600060405180830381865afa15801561129c573d6000803e3d6000fd5b505050506040513d6000823e601f3d908101601f191682016040526112c49190810190612a96565b90506000816000815181106112db576112db612b5b565b602002602001015190506000826001815181106112fa576112fa612b5b565b6020026020010151905060006001600160a01b03168360008151811061132257611322612b5b565b60200260200101516001600160a01b0316148061136b575060006001600160a01b03168360018151811061135857611358612b5b565b60200260200101516001600160a01b0316145b1561138c57604051630fff01a760e31b8152600481018690526024016106aa565b6040516305c514ad60e11b8152600481018590526001600160a01b03831690630b8a295a90602401602060405180830381865afa1580156113d1573d6000803e3d6000fd5b505050506040513d601f19601f820116820180604052508101906113f59190612b71565b15156000036114175760405163167da24960e31b815260040160405180910390fd5b61147c826001600160a01b03166304da1a466040518163ffffffff1660e01b8152600401602060405180830381865afa158015611458573d6000803e3d6000fd5b505050506040513d601f19601f820116820180604052508101906100759190612867565b826001600160a01b031663c52987cf6040518163ffffffff1660e01b8152600401602060405180830381865afa1580156114ba573d6000803e3d6000fd5b505050506040513d601f19601f820116820180604052508101906114de9190612b93565b1361154057611524826001600160a01b03166304da1a466040518163ffffffff1660e01b8152600401602060405180830381865afa158015611458573d6000803e3d6000fd5b604051632067f80160e21b81526004016106aa91815260200190565b60405163ea859a2760e01b81526004810185905242906001600160a01b0384169063ea859a2790602401602060405180830381865afa158015611587573d6000803e3d6000fd5b505050506040513d601f19601f820116820180604052508101906115ab9190612b93565b11156115ca576040516333e7d47160e11b815260040160405180910390fd5b834211156115eb5760405163f3708ccf60e01b815260040160405180910390fd5b604051630b6e8f8960e01b8152600481018590526001600160a01b03831690630b6e8f8990602401602060405180830381865afa158015611630573d6000803e3d6000fd5b505050506040513d601f19601f820116820180604052508101906116549190612b71565b15611672576040516384938d9f60e01b815260040160405180910390fd5b604051630b6e8f8960e01b8152600481018590526001600160a01b03821690630b6e8f8990602401602060405180830381865afa1580156116b7573d6000803e3d6000fd5b505050506040513d601f19601f820116820180604052508101906116db9190612b71565b156116f9576040516384938d9f60e01b815260040160405180910390fd5b604051636164e45d60e01b8152600481018590526001600160a01b03831690636164e45d90602401600060405180830381600087803b15801561173b57600080fd5b505af115801561174f573d6000803e3d6000fd5b5050604051636164e45d60e01b8152600481018790526001600160a01b0384169250636164e45d9150602401600060405180830381600087803b15801561179557600080fd5b505af11580156117a9573d6000803e3d6000fd5b50505050816001600160a01b0316633e04836585836001600160a01b031663f9db2427886040518263ffffffff1660e01b81526004016117eb91815260200190565b602060405180830381865afa158015611808573d6000803e3d6000fd5b505050506040513d601f19601f8201168201806040525081019061182c9190612b93565b6040516001600160e01b031960e085901b16815260048101929092526024820152604401600060405180830381600087803b15801561186a57600080fd5b505af115801561187e573d6000803e3d6000fd5b50505050806001600160a01b0316633e04836585846001600160a01b031663f9db2427886040518263ffffffff1660e01b81526004016118c091815260200190565b602060405180830381865afa1580156118dd573d6000803e3d6000fd5b505050506040513d601f19601f820116820180604052508101906119019190612b93565b6040516001600160e01b031960e085901b16815260048101929092526024820152604401600060405180830381600087803b15801561193f57600080fd5b505af1158015611953573d6000803e3d6000fd5b50506040516329322e0560e01b8152600481018790526001600160a01b038481166024830152851692506329322e059150604401600060405180830381600087803b1580156119a157600080fd5b505af11580156119b5573d6000803e3d6000fd5b50506040516329322e0560e01b8152600481018790526001600160a01b038581166024830152841692506329322e059150604401600060405180830381600087803b158015611a0357600080fd5b505af1158015611a17573d6000803e3d6000fd5b5050604080516080810191829052634d288ba760e01b90915260848101879052600092509050806001600160a01b038416634d288ba760a48301602060405180830381865afa158015611a6e573d6000803e3d6000fd5b505050506040513d601f19601f82011682018060405250810190611a929190612b93565b8152602001836001600160a01b031663f9db2427886040518263ffffffff1660e01b8152600401611ac591815260200190565b602060405180830381865afa158015611ae2573d6000803e3d6000fd5b505050506040513d601f19601f82011682018060405250810190611b069190612b93565b8152602001846001600160a01b0316634d288ba7886040518263ffffffff1660e01b8152600401611b3991815260200190565b602060405180830381865afa158015611b56573d6000803e3d6000fd5b505050506040513d601f19601f82011682018060405250810190611b7a9190612b93565b8152602001846001600160a01b031663f9db2427886040518263ffffffff1660e01b8152600401611bad91815260200190565b602060405180830381865afa158015611bca573d6000803e3d6000fd5b505050506040513d601f19601f82011682018060405250810190611bee9190612b93565b815250905060007f00000000000000000000000000000000000000000000000000000000000000006001600160a01b0316639820c733856001600160a01b03166304da1a466040518163ffffffff1660e01b8152600401602060405180830381865afa158015611c62573d6000803e3d6000fd5b505050506040513d601f19601f82011682018060405250810190611c869190612867565b6040516001600160e01b031960e084901b1681526001600160a01b039091166004820152602401602060405180830381865afa158015611cca573d6000803e3d6000fd5b505050506040513d601f19601f82011682018060405250810190611cee9190612867565b90506000816001600160a01b031663feaf968c6040518163ffffffff1660e01b815260040160a060405180830381865afa158015611d30573d6000803e3d6000fd5b505050506040513d601f19601f82011682018060405250810190611d5491906127df565b5050509150507f4c48fdcd7e3cb84b81aa54aa5dd04105736ae1bc179d84611c6fa5a642e803f288866001600160a01b031663ea859a278a6040518263ffffffff1660e01b8152600401611daa91815260200190565b602060405180830381865afa158015611dc7573d6000803e3d6000fd5b505050506040513d601f19601f82011682018060405250810190611deb9190612b93565b60408051602081019390935282015260608101899052608001604051602081830303815290604052805190602001208460018a4286604051611e3296959493929190612bf3565b60405180910390a15050505050505050565b804211611e64576040516373593a9960e01b815260040160405180910390fd5b604051630468d16d60e41b8152600481018390526000907f00000000000000000000000000000000000000000000000000000000000000006001600160a01b03169063468d16d090602401600060405180830381865afa158015611ecc573d6000803e3d6000fd5b505050506040513d6000823e601f3d908101601f19168201604052611ef49190810190612a96565b9050600081600081518110611f0b57611f0b612b5b565b60200260200101519050600082600181518110611f2a57611f2a612b5b565b6020026020010151905060006001600160a01b031683600081518110611f5257611f52612b5b565b60200260200101516001600160a01b03161480611f9b575060006001600160a01b031683600181518110611f8857611f88612b5b565b60200260200101516001600160a01b0316145b15611fbc57604051630fff01a760e31b8152600481018690526024016106aa565b6040516305c514ad60e11b8152600481018590526001600160a01b03831690630b8a295a90602401602060405180830381865afa158015612001573d6000803e3d6000fd5b505050506040513d601f19601f820116820180604052508101906120259190612b71565b158061209757506040516305c514ad60e11b8152600481018590526001600160a01b03821690630b8a295a90602401602060405180830381865afa158015612071573d6000803e3d6000fd5b505050506040513d601f19601f820116820180604052508101906120959190612b71565b155b156120b55760405163167da24960e31b815260040160405180910390fd5b604051630b6e8f8960e01b8152600481018590526001600160a01b03831690630b6e8f8990602401602060405180830381865afa1580156120fa573d6000803e3d6000fd5b505050506040513d601f19601f8201168201806040525081019061211e9190612b71565b1561213c576040516384938d9f60e01b815260040160405180910390fd5b604051630b6e8f8960e01b8152600481018590526001600160a01b03821690630b6e8f8990602401602060405180830381865afa158015612181573d6000803e3d6000fd5b505050506040513d601f19601f820116820180604052508101906121a59190612b71565b156121c3576040516384938d9f60e01b815260040160405180910390fd5b604051636164e45d60e01b8152600481018590526001600160a01b03831690636164e45d90602401600060405180830381600087803b15801561220557600080fd5b505af1158015612219573d6000803e3d6000fd5b5050604051636164e45d60e01b8152600481018790526001600160a01b0384169250636164e45d9150602401600060405180830381600087803b15801561225f57600080fd5b505af1158015612273573d6000803e3d6000fd5b5050604051633e04836560e01b815260048101879052600060248201526001600160a01b0385169250633e0483659150604401600060405180830381600087803b1580156122c057600080fd5b505af11580156122d4573d6000803e3d6000fd5b505060405163f9db242760e01b8152600481018790526001600160a01b0384169250633e04836591508690839063f9db242790602401602060405180830381865afa158015612327573d6000803e3d6000fd5b505050506040513d601f19601f8201168201806040525081019061234b9190612b93565b60405163f9db242760e01b8152600481018990526001600160a01b0387169063f9db242790602401602060405180830381865afa158015612390573d6000803e3d6000fd5b505050506040513d601f19601f820116820180604052508101906123b49190612b93565b6123be9190612c4e565b6040516001600160e01b031960e085901b16815260048101929092526024820152604401600060405180830381600087803b1580156123fc57600080fd5b505af1158015612410573d6000803e3d6000fd5b50506040516329322e0560e01b8152600481018790526001600160a01b038481166024830152851692506329322e059150604401600060405180830381600087803b15801561245e57600080fd5b505af1158015612472573d6000803e3d6000fd5b5050604080516080810191829052634d288ba760e01b90915260848101879052600092509050806001600160a01b038416634d288ba760a48301602060405180830381865afa1580156124c9573d6000803e3d6000fd5b505050506040513d601f19601f820116820180604052508101906124ed9190612b93565b8152602001836001600160a01b031663f9db2427886040518263ffffffff1660e01b815260040161252091815260200190565b602060405180830381865afa15801561253d573d6000803e3d6000fd5b505050506040513d601f19601f820116820180604052508101906125619190612b93565b8152602001846001600160a01b0316634d288ba7886040518263ffffffff1660e01b815260040161259491815260200190565b602060405180830381865afa1580156125b1573d6000803e3d6000fd5b505050506040513d601f19601f820116820180604052508101906125d59190612b93565b8152602001846001600160a01b031663f9db2427886040518263ffffffff1660e01b815260040161260891815260200190565b602060405180830381865afa158015612625573d6000803e3d6000fd5b505050506040513d601f19601f820116820180604052508101906126499190612b93565b905260405163ea859a2760e01b8152600481018790529091507f4c48fdcd7e3cb84b81aa54aa5dd04105736ae1bc179d84611c6fa5a642e803f29087906001600160a01b0386169063ea859a2790602401602060405180830381865afa1580156126b7573d6000803e3d6000fd5b505050506040513d601f19601f820116820180604052508101906126db9190612b93565b60408051602081019390935282015260608101879052608001604051602081830303815290604052805190602001208260008842612750896001600160a01b03166304da1a466040518163ffffffff1660e01b8152600401602060405180830381865afa158015611458573d6000803e3d6000fd5b60405161122496959493929190612bf3565b6001600160a01b038116811461277757600080fd5b50565b60006020828403121561278c57600080fd5b813561279781612762565b9392505050565b600080604083850312156127b157600080fd5b50508035926020909101359150565b805169ffffffffffffffffffff811681146127da57600080fd5b919050565b600080600080600060a086880312156127f757600080fd5b612800866127c0565b9450602086015193506040860151925060608601519150612823608087016127c0565b90509295509295909350565b634e487b7160e01b600052601160045260246000fd5b6000828210156128575761285761282f565b500390565b80516127da81612762565b60006020828403121561287957600080fd5b815161279781612762565b60006020828403121561289657600080fd5b815160ff8116811461279757600080fd5b600060ff821660ff8416808210156128c1576128c161282f565b90039392505050565b600181815b808511156129055781600019048211156128eb576128eb61282f565b808516156128f857918102915b93841c93908002906128cf565b509250929050565b60008261291c575060016129aa565b81612929575060006129aa565b816001811461293f576002811461294957612965565b60019150506129aa565b60ff84111561295a5761295a61282f565b50506001821b6129aa565b5060208310610133831016604e8410600b8410161715612988575081810a6129aa565b61299283836128ca565b80600019048211156129a6576129a661282f565b0290505b92915050565b600061279760ff84168361290d565b60006001600160ff1b03818413828413808216868404861116156129e5576129e561282f565b600160ff1b6000871282811687830589121615612a0457612a0461282f565b60008712925087820587128484161615612a2057612a2061282f565b87850587128184161615612a3657612a3661282f565b505050929093029392505050565b600082612a6157634e487b7160e01b600052601260045260246000fd5b600160ff1b821460001984141615612a7b57612a7b61282f565b500590565b634e487b7160e01b600052604160045260246000fd5b60006020808385031215612aa957600080fd5b825167ffffffffffffffff80821115612ac157600080fd5b818501915085601f830112612ad557600080fd5b815181811115612ae757612ae7612a80565b8060051b604051601f19603f83011681018181108582111715612b0c57612b0c612a80565b604052918252848201925083810185019188831115612b2a57600080fd5b938501935b82851015612b4f57612b408561285c565b84529385019392850192612b2f565b98975050505050505050565b634e487b7160e01b600052603260045260246000fd5b600060208284031215612b8357600080fd5b8151801515811461279757600080fd5b600060208284031215612ba557600080fd5b5051919050565b84815260e08101612be16020830186805182526020810151602083015260408101516040830152606081015160608301525050565b60a082019390935260c0015292915050565b8681526101208101612c296020830188805182526020810151602083015260408101516040830152606081015160608301525050565b94151560a082015260c081019390935260e08301919091526101009091015292915050565b60008219821115612c6157612c6161282f565b50019056fea2646970667358221220db610f23fb6e38962b0d1a7f9eda5355ec3158e9fd1a4af2c304ec6e644fa6b664736f6c634300080f0033",
    "linkReferences": {}
  },
  "methodIdentifiers": {
    "getLatestPrice(address)": "16345f18",
    "getVaultFactory()": "18bcb284",
    "triggerDepeg(uint256,uint256)": "bcbbcfe4",
    "triggerEndEpoch(uint256,uint256)": "cdfd29b3",
    "triggerNullEpoch(uint256,uint256)": "2d388e61",
    "vaultFactory()": "d8a06f73"
  },
  "id": 30
}