{
  "abi": [
    {
      "inputs": [
        {
          "internalType": "address",
          "name": "_treasury",
          "type": "address"
        },
        {
          "internalType": "address",
          "name": "_weth",
          "type": "address"
        }
      ],
      "stateMutability": "nonpayable",
      "type": "constructor"
    },
    {
      "inputs": [],
      "name": "AddressFactoryNotInController",
      "type": "error"
    },
    {
      "inputs": [],
      "name": "AddressNotController",
      "type": "error"
    },
    {
      "inputs": [],
      "name": "AddressZero",
      "type": "error"
    },
    {
      "inputs": [],
      "name": "ControllerNotSet",
      "type": "error"
    },
    {
      "inputs": [
        {
          "internalType": "uint256",
          "name": "marketIndex",
          "type": "uint256"
        }
      ],
      "name": "MarketDoesNotExist",
      "type": "error"
    },
    {
      "inputs": [],
      "name": "TimeLocked",
      "type": "error"
    },
    {
      "anonymous": false,
      "inputs": [
        {
          "indexed": true,
          "internalType": "bytes32",
          "name": "marketEpochId",
          "type": "bytes32"
        },
        {
          "indexed": true,
          "internalType": "uint256",
          "name": "mIndex",
          "type": "uint256"
        },
        {
          "indexed": false,
          "internalType": "uint256",
          "name": "startEpoch",
          "type": "uint256"
        },
        {
          "indexed": false,
          "internalType": "uint256",
          "name": "endEpoch",
          "type": "uint256"
        },
        {
          "indexed": false,
          "internalType": "address",
          "name": "hedge",
          "type": "address"
        },
        {
          "indexed": false,
          "internalType": "address",
          "name": "risk",
          "type": "address"
        },
        {
          "indexed": false,
          "internalType": "address",
          "name": "token",
          "type": "address"
        },
        {
          "indexed": false,
          "internalType": "string",
          "name": "name",
          "type": "string"
        },
        {
          "indexed": false,
          "internalType": "int256",
          "name": "strikePrice",
          "type": "int256"
        },
        {
          "indexed": false,
          "internalType": "uint256",
          "name": "withdrawalFee",
          "type": "uint256"
        }
      ],
      "name": "EpochCreated",
      "type": "event"
    },
    {
      "anonymous": false,
      "inputs": [
        {
          "indexed": true,
          "internalType": "uint256",
          "name": "mIndex",
          "type": "uint256"
        },
        {
          "indexed": false,
          "internalType": "address",
          "name": "hedge",
          "type": "address"
        },
        {
          "indexed": false,
          "internalType": "address",
          "name": "risk",
          "type": "address"
        },
        {
          "indexed": false,
          "internalType": "address",
          "name": "token",
          "type": "address"
        },
        {
          "indexed": false,
          "internalType": "string",
          "name": "name",
          "type": "string"
        },
        {
          "indexed": false,
          "internalType": "int256",
          "name": "strikePrice",
          "type": "int256"
        }
      ],
      "name": "MarketCreated",
      "type": "event"
    },
    {
      "anonymous": false,
      "inputs": [
        {
          "indexed": true,
          "internalType": "address",
          "name": "previousOwner",
          "type": "address"
        },
        {
          "indexed": true,
          "internalType": "address",
          "name": "newOwner",
          "type": "address"
        }
      ],
      "name": "OwnershipTransferred",
      "type": "event"
    },
    {
      "anonymous": false,
      "inputs": [
        {
          "indexed": true,
          "internalType": "uint256",
          "name": "_marketIndex",
          "type": "uint256"
        },
        {
          "indexed": true,
          "internalType": "address",
          "name": "controller",
          "type": "address"
        }
      ],
      "name": "changedController",
      "type": "event"
    },
    {
      "anonymous": false,
      "inputs": [
        {
          "indexed": true,
          "internalType": "address",
          "name": "_token",
          "type": "address"
        },
        {
          "indexed": false,
          "internalType": "address",
          "name": "_oracle",
          "type": "address"
        }
      ],
      "name": "changedOracle",
      "type": "event"
    },
    {
      "anonymous": false,
      "inputs": [
        {
          "indexed": true,
          "internalType": "uint256",
          "name": "_marketIndex",
          "type": "uint256"
        },
        {
          "indexed": false,
          "internalType": "uint256",
          "name": "_timeWindow",
          "type": "uint256"
        }
      ],
      "name": "changedTimeWindow",
      "type": "event"
    },
    {
      "anonymous": false,
      "inputs": [
        {
          "indexed": false,
          "internalType": "address",
          "name": "_treasury",
          "type": "address"
        },
        {
          "indexed": true,
          "internalType": "uint256",
          "name": "_marketIndex",
          "type": "uint256"
        }
      ],
      "name": "changedTreasury",
      "type": "event"
    },
    {
      "anonymous": false,
      "inputs": [
        {
          "indexed": true,
          "internalType": "uint256",
          "name": "_marketIndex",
          "type": "uint256"
        },
        {
          "indexed": false,
          "internalType": "uint256",
          "name": "_feeRate",
          "type": "uint256"
        }
      ],
      "name": "changedVaultFee",
      "type": "event"
    },
    {
      "anonymous": false,
      "inputs": [
        {
          "indexed": true,
          "internalType": "address",
          "name": "newController",
          "type": "address"
        }
      ],
      "name": "controllerSet",
      "type": "event"
    },
    {
      "inputs": [],
      "name": "WETH",
      "outputs": [
        {
          "internalType": "address",
          "name": "",
          "type": "address"
        }
      ],
      "stateMutability": "view",
      "type": "function"
    },
    {
      "inputs": [
        {
          "internalType": "uint256",
          "name": "_marketIndex",
          "type": "uint256"
        },
        {
          "internalType": "address",
          "name": "_controller",
          "type": "address"
        }
      ],
      "name": "changeController",
      "outputs": [],
      "stateMutability": "nonpayable",
      "type": "function"
    },
    {
      "inputs": [
        {
          "internalType": "address",
          "name": "_token",
          "type": "address"
        },
        {
          "internalType": "address",
          "name": "_oracle",
          "type": "address"
        }
      ],
      "name": "changeOracle",
      "outputs": [],
      "stateMutability": "nonpayable",
      "type": "function"
    },
    {
      "inputs": [
        {
          "internalType": "uint256",
          "name": "_marketIndex",
          "type": "uint256"
        },
        {
          "internalType": "uint256",
          "name": "_timewindow",
          "type": "uint256"
        }
      ],
      "name": "changeTimewindow",
      "outputs": [],
      "stateMutability": "nonpayable",
      "type": "function"
    },
    {
      "inputs": [
        {
          "internalType": "address",
          "name": "_treasury",
          "type": "address"
        },
        {
          "internalType": "uint256",
          "name": "_marketIndex",
          "type": "uint256"
        }
      ],
      "name": "changeTreasury",
      "outputs": [],
      "stateMutability": "nonpayable",
      "type": "function"
    },
    {
      "inputs": [],
      "name": "controller",
      "outputs": [
        {
          "internalType": "address",
          "name": "",
          "type": "address"
        }
      ],
      "stateMutability": "view",
      "type": "function"
    },
    {
      "inputs": [
        {
          "internalType": "uint256",
          "name": "_withdrawalFee",
          "type": "uint256"
        },
        {
          "internalType": "address",
          "name": "_token",
          "type": "address"
        },
        {
          "internalType": "int256",
          "name": "_strikePrice",
          "type": "int256"
        },
        {
          "internalType": "uint256",
          "name": "epochBegin",
          "type": "uint256"
        },
        {
          "internalType": "uint256",
          "name": "epochEnd",
          "type": "uint256"
        },
        {
          "internalType": "address",
          "name": "_oracle",
          "type": "address"
        },
        {
          "internalType": "string",
          "name": "_name",
          "type": "string"
        }
      ],
      "name": "createNewMarket",
      "outputs": [
        {
          "internalType": "address",
          "name": "insr",
          "type": "address"
        },
        {
          "internalType": "address",
          "name": "rsk",
          "type": "address"
        }
      ],
      "stateMutability": "nonpayable",
      "type": "function"
    },
    {
      "inputs": [
        {
          "internalType": "uint256",
          "name": "index",
          "type": "uint256"
        },
        {
          "internalType": "uint256",
          "name": "epochBegin",
          "type": "uint256"
        },
        {
          "internalType": "uint256",
          "name": "epochEnd",
          "type": "uint256"
        },
        {
          "internalType": "uint256",
          "name": "_withdrawalFee",
          "type": "uint256"
        }
      ],
      "name": "deployMoreAssets",
      "outputs": [],
      "stateMutability": "nonpayable",
      "type": "function"
    },
    {
      "inputs": [
        {
          "internalType": "uint256",
          "name": "index",
          "type": "uint256"
        }
      ],
      "name": "getVaults",
      "outputs": [
        {
          "internalType": "address[]",
          "name": "vaults",
          "type": "address[]"
        }
      ],
      "stateMutability": "view",
      "type": "function"
    },
    {
      "inputs": [
        {
          "internalType": "uint256",
          "name": "",
          "type": "uint256"
        },
        {
          "internalType": "uint256",
          "name": "",
          "type": "uint256"
        }
      ],
      "name": "indexEpochs",
      "outputs": [
        {
          "internalType": "uint256",
          "name": "",
          "type": "uint256"
        }
      ],
      "stateMutability": "view",
      "type": "function"
    },
    {
      "inputs": [
        {
          "internalType": "uint256",
          "name": "",
          "type": "uint256"
        },
        {
          "internalType": "uint256",
          "name": "",
          "type": "uint256"
        }
      ],
      "name": "indexVaults",
      "outputs": [
        {
          "internalType": "address",
          "name": "",
          "type": "address"
        }
      ],
      "stateMutability": "view",
      "type": "function"
    },
    {
      "inputs": [],
      "name": "lastLocked",
      "outputs": [
        {
          "internalType": "uint256",
          "name": "",
          "type": "uint256"
        }
      ],
      "stateMutability": "view",
      "type": "function"
    },
    {
      "inputs": [],
      "name": "marketIndex",
      "outputs": [
        {
          "internalType": "uint256",
          "name": "",
          "type": "uint256"
        }
      ],
      "stateMutability": "view",
      "type": "function"
    },
    {
      "inputs": [],
      "name": "owner",
      "outputs": [
        {
          "internalType": "address",
          "name": "",
          "type": "address"
        }
      ],
      "stateMutability": "view",
      "type": "function"
    },
    {
      "inputs": [],
      "name": "renounceOwnership",
      "outputs": [],
      "stateMutability": "nonpayable",
      "type": "function"
    },
    {
      "inputs": [
        {
          "internalType": "address",
          "name": "_controller",
          "type": "address"
        }
      ],
      "name": "setController",
      "outputs": [],
      "stateMutability": "nonpayable",
      "type": "function"
    },
    {
      "inputs": [],
      "name": "timeLock",
      "outputs": [
        {
          "internalType": "uint256",
          "name": "",
          "type": "uint256"
        }
      ],
      "stateMutability": "view",
      "type": "function"
    },
    {
      "inputs": [
        {
          "internalType": "address",
          "name": "",
          "type": "address"
        }
      ],
      "name": "tokenToOracle",
      "outputs": [
        {
          "internalType": "address",
          "name": "",
          "type": "address"
        }
      ],
      "stateMutability": "view",
      "type": "function"
    },
    {
      "inputs": [
        {
          "internalType": "address",
          "name": "newOwner",
          "type": "address"
        }
      ],
      "name": "transferOwnership",
      "outputs": [],
      "stateMutability": "nonpayable",
      "type": "function"
    },
    {
      "inputs": [],
      "name": "treasury",
      "outputs": [
        {
          "internalType": "address",
          "name": "",
          "type": "address"
        }
      ],
      "stateMutability": "view",
      "type": "function"
    }
  ],
  "bytecode": {
    "object": "0x60c0604052620d2f0060a0523480156200001857600080fd5b5060405162005134380380620051348339810160408190526200003b9162000138565b6200004633620000cb565b6001600160a01b0381166200006e57604051639fabe1c160e01b815260040160405180910390fd5b6001600160a01b0382166200009657604051639fabe1c160e01b815260040160405180910390fd5b6001600160a01b039081166080526000600355600180546001600160a01b031916929091169190911790554260045562000170565b600080546001600160a01b038381166001600160a01b0319831681178455604051919092169283917f8be0079c531659141344cd1fd0a4f28419497f9722a3daafe3b4186f6b6457e09190a35050565b80516001600160a01b03811681146200013357600080fd5b919050565b600080604083850312156200014c57600080fd5b62000157836200011b565b915062000167602084016200011b565b90509250929050565b60805160a051614f7b620001b96000396000818161032c0152818161072e015281816109f90152610f900152600081816102d60152818161049401526105320152614f7b6000f3fe60806040523480156200001157600080fd5b5060043610620001455760003560e01c806392eefe9b11620000bb578063c0c99d9b116200007a578063c0c99d9b14620002f8578063c5ba24b1146200030f578063d085835a1462000326578063f2fde38b146200034e578063f77c4791146200036557600080fd5b806392eefe9b146200025f578063971840341462000276578063981fed0d146200028d5780639820c73314620002a4578063ad5c464814620002d057600080fd5b80634dc809ce11620001085780634dc809ce14620001f557806361d027b3146200020c578063715018a614620002395780638c7adc1514620002435780638da5cb5b146200024d57600080fd5b806315355d89146200014a57806324a3c510146200018657806339d0913b146200019f578063424a4ab714620001b8578063468d16d014620001cf575b600080fd5b620001616200015b366004620016ab565b62000379565b604080516001600160a01b039384168152929091166020830152015b60405180910390f35b6200019060045481565b6040519081526020016200017d565b620001b6620001b036600462001783565b620006f7565b005b62000190620001c936600462001783565b62000922565b620001e6620001e0366004620017a6565b62000954565b6040516200017d9190620017c0565b620001b6620002063660046200180f565b620009c2565b60015462000220906001600160a01b031681565b6040516001600160a01b0390911681526020016200017d565b620001b662000af6565b6200019060035481565b6000546001600160a01b031662000220565b620001b6620002703660046200184d565b62000b31565b620001b66200028736600462001874565b62000bd0565b620001b66200029e366004620018a3565b62000de8565b62000220620002b53660046200184d565b6007602052600090815260409020546001600160a01b031681565b620002207f000000000000000000000000000000000000000000000000000000000000000081565b620002206200030936600462001783565b62000f20565b620001b662000320366004620018d6565b62000f59565b620001907f000000000000000000000000000000000000000000000000000000000000000081565b620001b66200035f3660046200184d565b620011a7565b60025462000220906001600160a01b031681565b6000805481906001600160a01b03163314620003b25760405162461bcd60e51b8152600401620003a990620018fe565b60405180910390fd5b6002546001600160a01b0316620003dc57604051632110f99160e01b815260040160405180910390fd5b6002546040805163062f2ca160e21b8152905130926001600160a01b0316916318bcb2849160048083019260209291908290030181865afa15801562000426573d6000803e3d6000fd5b505050506040513d601f19601f820116820180604052508101906200044c919062001933565b6001600160a01b0316146200047457604051632e6268cb60e11b815260040160405180910390fd5b60016003600082825462000489919062001953565b9250508190555060007f000000000000000000000000000000000000000000000000000000000000000084604051602001620004c69190620019ad565b60408051601f198184030181529082905260015460025491926001600160a01b03918216928e928e92911690620004fd9062001591565b6200050e9695949392919062001a06565b604051809103906000f0801580156200052b573d6000803e3d6000fd5b50905060007f00000000000000000000000000000000000000000000000000000000000000008560405160200162000564919062001a6f565b60408051601f198184030181529082905260015460025491926001600160a01b03918216928f928f929116906200059b9062001591565b620005ac9695949392919062001a99565b604051809103906000f080158015620005c9573d6000803e3d6000fd5b506040805180820182526001600160a01b038086168252831660208083019190915260035460009081526005909152919091209192506200060d919060026200159f565b506001600160a01b038a8116600090815260076020526040902054166200065d576001600160a01b038a8116600090815260076020526040902080546001600160a01b0319169188169190911790555b6003547ff38f00404415af51ddd0dd57ce975d015de2f40ba8a087ac48cd7552b7580f3283838d898e6040516200069995949392919062001b02565b60405180910390a26040805160c0810182526003548152602081018a90529081018890526001600160a01b0380841660608301528216608082015260a081018c9052620006e68162001249565b50909a909950975050505050505050565b6000546001600160a01b03163314620007245760405162461bcd60e51b8152600401620003a990620018fe565b60045462000753907f000000000000000000000000000000000000000000000000000000000000000062001953565b42101562000774576040516356f3855760e01b815260040160405180910390fd5b600082815260056020908152604080832080548251818502810185019093528083529192909190830182828015620007d657602002820191906000526020600020905b81546001600160a01b03168152600190910190602001808311620007b7575b50505050509050600081600081518110620007f557620007f562001b4a565b6020026020010151905060008260018151811062000817576200081762001b4a565b60200260200101519050816001600160a01b03166328337df6856040518263ffffffff1660e01b81526004016200085091815260200190565b600060405180830381600087803b1580156200086b57600080fd5b505af115801562000880573d6000803e3d6000fd5b5050604051631419befb60e11b8152600481018790526001600160a01b03841692506328337df69150602401600060405180830381600087803b158015620008c757600080fd5b505af1158015620008dc573d6000803e3d6000fd5b50505050847ff2552ab36a09f455ea9338e021e499c4a24016de8810a7e723c738ab11ea7af4856040516200091391815260200190565b60405180910390a25050505050565b600660205281600052604060002081815481106200093f57600080fd5b90600052602060002001600091509150505481565b600081815260056020908152604091829020805483518184028101840190945280845260609392830182828015620009b657602002820191906000526020600020905b81546001600160a01b0316815260019091019060200180831162000997575b50505050509050919050565b6000546001600160a01b03163314620009ef5760405162461bcd60e51b8152600401620003a990620018fe565b60045462000a1e907f000000000000000000000000000000000000000000000000000000000000000062001953565b42101562000a3f576040516356f3855760e01b815260040160405180910390fd5b6001600160a01b03811662000a6757604051639fabe1c160e01b815260040160405180910390fd5b6001600160a01b03821662000a8f57604051639fabe1c160e01b815260040160405180910390fd5b6001600160a01b0382811660008181526007602090815260409182902080546001600160a01b0319169486169485179055905192835290917f28df3b064354b43def85ae35ad1af737224afbc9e54056c6148c40718fc0f23b910160405180910390a25050565b6000546001600160a01b0316331462000b235760405162461bcd60e51b8152600401620003a990620018fe565b62000b2f600062001541565b565b6000546001600160a01b0316331462000b5e5760405162461bcd60e51b8152600401620003a990620018fe565b6001600160a01b03811662000b8657604051639fabe1c160e01b815260040160405180910390fd5b600280546001600160a01b0319166001600160a01b0383169081179091556040517fef870992dc2c2a67cde45c38102147a9bb3131b38b39be3ec2ba273c058c917190600090a250565b6000546001600160a01b0316331462000bfd5760405162461bcd60e51b8152600401620003a990620018fe565b6001600160a01b03821662000c2557604051639fabe1c160e01b815260040160405180910390fd5b600180546001600160a01b0319166001600160a01b03841617905560008181526005602090815260408083208054825181850281018501909352808352919290919083018282801562000ca257602002820191906000526020600020905b81546001600160a01b0316815260019091019060200180831162000c83575b5050505050905060008160008151811062000cc15762000cc162001b4a565b6020026020010151905060008260018151811062000ce35762000ce362001b4a565b602090810291909101015160405163b14f2a3960e01b81526001600160a01b0387811660048301529192509083169063b14f2a3990602401600060405180830381600087803b15801562000d3657600080fd5b505af115801562000d4b573d6000803e3d6000fd5b505060405163b14f2a3960e01b81526001600160a01b0388811660048301528416925063b14f2a399150602401600060405180830381600087803b15801562000d9357600080fd5b505af115801562000da8573d6000803e3d6000fd5b50506040516001600160a01b03881681528692507f19bf2eeec0ce4db400b9ec99f958a1b32935964814d88991caa4b9b936b4e639915060200162000913565b6000546001600160a01b0316331462000e155760405162461bcd60e51b8152600401620003a990620018fe565b6002546001600160a01b031662000e3f57604051632110f99160e01b815260040160405180910390fd5b60035484111562000e6757604051630fff01a760e31b815260048101859052602401620003a9565b60008481526005602052604081208054829062000e885762000e8862001b4a565b600091825260208083209091015487835260059091526040822080546001600160a01b03909216935090600190811062000ec65762000ec662001b4a565b600091825260209182902001546040805160c08101825289815292830188905282018690526001600160a01b038481166060840152166080820181905260a08201859052915062000f178162001249565b50505050505050565b6005602052816000526040600020818154811062000f3d57600080fd5b6000918252602090912001546001600160a01b03169150829050565b6000546001600160a01b0316331462000f865760405162461bcd60e51b8152600401620003a990620018fe565b60045462000fb5907f000000000000000000000000000000000000000000000000000000000000000062001953565b42101562000fd6576040516356f3855760e01b815260040160405180910390fd5b6001600160a01b03811662000ffe57604051639fabe1c160e01b815260040160405180910390fd5b6000828152600560209081526040808320805482518185028101850190935280835291929091908301828280156200106057602002820191906000526020600020905b81546001600160a01b0316815260019091019060200180831162001041575b505050505090506000816000815181106200107f576200107f62001b4a565b60200260200101519050600082600181518110620010a157620010a162001b4a565b6020908102919091010151604051633cebb82360e01b81526001600160a01b03868116600483015291925090831690633cebb82390602401600060405180830381600087803b158015620010f457600080fd5b505af115801562001109573d6000803e3d6000fd5b5050604051633cebb82360e01b81526001600160a01b03878116600483015284169250633cebb8239150602401600060405180830381600087803b1580156200115157600080fd5b505af115801562001166573d6000803e3d6000fd5b50506040516001600160a01b03871692508791507fda50bc426cb0e9e095fd3ae12db16f07a366fe474ca736f84dd3037bd9050cff90600090a35050505050565b6000546001600160a01b03163314620011d45760405162461bcd60e51b8152600401620003a990620018fe565b6001600160a01b0381166200123b5760405162461bcd60e51b815260206004820152602660248201527f4f776e61626c653a206e6577206f776e657220697320746865207a65726f206160448201526564647265737360d01b6064820152608401620003a9565b620012468162001541565b50565b6060810151602082015160408084015160a08501519151631d1c558560e21b81526004810193909352602483015260448201526001600160a01b0390911690637471561490606401600060405180830381600087803b158015620012ac57600080fd5b505af1158015620012c1573d6000803e3d6000fd5b5050506080820151602083015160408085015160a08601519151631d1c558560e21b81526004810193909352602483015260448201526001600160a01b039091169150637471561490606401600060405180830381600087803b1580156200132857600080fd5b505af11580156200133d573d6000803e3d6000fd5b505082516000908152600660209081526040808320818701805182546001810184559286529484902090910193909355855182870151935182519384018290529183019390935260608201529092506080019050604051602081830303815290604052805190602001207fb2c07c1ffc875d6b669c1cb15aa8116233e9f507b7244eaf4ef84c7660c24377836020015184604001518560600151866080015187606001516001600160a01b03166304da1a466040518163ffffffff1660e01b8152600401602060405180830381865afa1580156200141f573d6000803e3d6000fd5b505050506040513d601f19601f8201168201806040525081019062001445919062001933565b88606001516001600160a01b03166306fdde036040518163ffffffff1660e01b8152600401600060405180830381865afa15801562001488573d6000803e3d6000fd5b505050506040513d6000823e601f3d908101601f19168201604052620014b2919081019062001b60565b89606001516001600160a01b031663c52987cf6040518163ffffffff1660e01b8152600401602060405180830381865afa158015620014f5573d6000803e3d6000fd5b505050506040513d601f19601f820116820180604052508101906200151b919062001be0565b8a60a001516040516200153698979695949392919062001bfa565b60405180910390a350565b600080546001600160a01b038381166001600160a01b0319831681178455604051919092169283917f8be0079c531659141344cd1fd0a4f28419497f9722a3daafe3b4186f6b6457e09190a35050565b6132ef8062001c5783390190565b828054828255906000526020600020908101928215620015f7579160200282015b82811115620015f757825182546001600160a01b0319166001600160a01b03909116178255602090920191600190910190620015c0565b506200160592915062001609565b5090565b5b808211156200160557600081556001016200160a565b6001600160a01b03811681146200124657600080fd5b634e487b7160e01b600052604160045260246000fd5b604051601f8201601f1916810167ffffffffffffffff8111828210171562001678576200167862001636565b604052919050565b600067ffffffffffffffff8211156200169d576200169d62001636565b50601f01601f191660200190565b600080600080600080600060e0888a031215620016c757600080fd5b873596506020880135620016db8162001620565b955060408801359450606088013593506080880135925060a0880135620017028162001620565b915060c088013567ffffffffffffffff8111156200171f57600080fd5b8801601f81018a136200173157600080fd5b803562001748620017428262001680565b6200164c565b8181528b60208385010111156200175e57600080fd5b8160208401602083013760006020838301015280935050505092959891949750929550565b600080604083850312156200179757600080fd5b50508035926020909101359150565b600060208284031215620017b957600080fd5b5035919050565b6020808252825182820181905260009190848201906040850190845b81811015620018035783516001600160a01b031683529284019291840191600101620017dc565b50909695505050505050565b600080604083850312156200182357600080fd5b8235620018308162001620565b91506020830135620018428162001620565b809150509250929050565b6000602082840312156200186057600080fd5b81356200186d8162001620565b9392505050565b600080604083850312156200188857600080fd5b8235620018958162001620565b946020939093013593505050565b60008060008060808587031215620018ba57600080fd5b5050823594602084013594506040840135936060013592509050565b60008060408385031215620018ea57600080fd5b823591506020830135620018428162001620565b6020808252818101527f4f776e61626c653a2063616c6c6572206973206e6f7420746865206f776e6572604082015260600190565b6000602082840312156200194657600080fd5b81516200186d8162001620565b600082198211156200197557634e487b7160e01b600052601160045260246000fd5b500190565b60005b83811015620019975781810151838201526020016200197d565b83811115620019a7576000848401525b50505050565b60008251620019c18184602087016200197a565b64484544474560d81b920191825250600501919050565b60008151808452620019f28160208601602086016200197a565b601f01601f19169290920160200192915050565b600060018060a01b03808916835260e0602084015262001a2a60e0840189620019d8565b83810360408086019190915260048252636859324b60e01b60208301529782166060850152958116608084015260a083019490945250911660c0909101520192915050565b6000825162001a838184602087016200197a565b635249534b60e01b920191825250600401919050565b600060018060a01b03808916835260e0602084015262001abd60e0840189620019d8565b83810360408086019190915260048252637259324b60e01b60208301529782166060850152958116608084015260a083019490945250911660c0909101520192915050565b6001600160a01b03868116825285811660208301528416604082015260a06060820181905260009062001b3890830185620019d8565b90508260808301529695505050505050565b634e487b7160e01b600052603260045260246000fd5b60006020828403121562001b7357600080fd5b815167ffffffffffffffff81111562001b8b57600080fd5b8201601f8101841362001b9d57600080fd5b805162001bae620017428262001680565b81815285602083850101111562001bc457600080fd5b62001bd78260208301602086016200197a565b95945050505050565b60006020828403121562001bf357600080fd5b5051919050565b888152602081018890526001600160a01b03878116604083015286811660608301528516608082015261010060a0820181905260009062001c3e83820187620019d8565b60c0840195909552505060e00152969550505050505056fe6101006040523480156200001257600080fd5b50604051620032ef380380620032ef83398101604081905262000035916200024c565b8686866040518060200160405280600081525062000059816200015060201b60201c565b506001600160a01b03831660805260046200007583826200039a565b5060056200008482826200039a565b5050600160065550506001600160a01b038416620000b557604051639fabe1c160e01b815260040160405180910390fd5b6001600160a01b038116620000dd57604051639fabe1c160e01b815260040160405180910390fd5b6001600160a01b0383166200010557604051639fabe1c160e01b815260040160405180910390fd5b6001600160a01b0392831660a052600780546001600160a01b031990811695851695909517905560c0919091523360e05260088054909316911617905550506001600a555062000466565b60026200015e82826200039a565b5050565b80516001600160a01b03811681146200017a57600080fd5b919050565b634e487b7160e01b600052604160045260246000fd5b600082601f830112620001a757600080fd5b81516001600160401b0380821115620001c457620001c46200017f565b604051601f8301601f19908116603f01168101908282118183101715620001ef57620001ef6200017f565b816040528381526020925086838588010111156200020c57600080fd5b600091505b8382101562000230578582018301518183018401529082019062000211565b83821115620002425760008385830101525b9695505050505050565b600080600080600080600060e0888a0312156200026857600080fd5b620002738862000162565b60208901519097506001600160401b03808211156200029157600080fd5b6200029f8b838c0162000195565b975060408a0151915080821115620002b657600080fd5b50620002c58a828b0162000195565b955050620002d66060890162000162565b9350620002e66080890162000162565b925060a08801519150620002fd60c0890162000162565b905092959891949750929550565b600181811c908216806200032057607f821691505b6020821081036200034157634e487b7160e01b600052602260045260246000fd5b50919050565b601f8211156200039557600081815260208120601f850160051c81016020861015620003705750805b601f850160051c820191505b8181101562000391578281556001016200037c565b5050505b505050565b81516001600160401b03811115620003b657620003b66200017f565b620003ce81620003c784546200030b565b8462000347565b602080601f831160018114620004065760008415620003ed5750858301515b600019600386901b1c1916600185901b17855562000391565b600085815260208120601f198616915b82811015620004375788860151825594840194600190910190840162000416565b5085821015620004565787850151600019600388901b60f8161c191681555b5050505050600190811b01905550565b60805160a05160c05160e051612e17620004d860003960008181610a5801528181610c590152818161147201526118c401526000610709015260006102b401526000818161044a01528181610b3701528181610fda015281816112dd0152818161138d01526116c50152612e176000f3fe60806040526004361061023a5760003560e01c80636164e45d1161012e578063b14f2a39116100ab578063e985e9c51161006f578063e985e9c514610760578063ea859a27146107a9578063f242432a146107d6578063f77c4791146107f6578063f9db24271461081657600080fd5b8063b14f2a39146106aa578063bd85b039146106ca578063c52987cf146106f7578063c6b61e4c1461072b578063d662b92d1461074b57600080fd5b806395d89b41116100f257806395d89b4114610608578063a22cb4651461061d578063a5054b5b1461063d578063ad5be0c41461065d578063aff223b91461067d57600080fd5b80636164e45d1461056857806371b3177a1461058857806374715614146105a85780638dbdbe6d146105c857806394605857146105e857600080fd5b80632eb2c2d6116101bc578063488bd7b011610180578063488bd7b0146104ac5780634d288ba7146104cc5780634e1273f4146104f95780634f558e791461052657806356150edf1461055557600080fd5b80632eb2c2d6146104025780632fccfc831461042257806338d52e0f146104385780633cebb8231461046c5780633e0483651461048c57600080fd5b80630b8a295a116102035780630b8a295a146103405780630e89341c14610370578063243219d11461039057806328337df6146103c057806329322e05146103e257600080fd5b8062fdd58e1461023f57806301ffc9a71461027257806304da1a46146102a257806306fdde03146102ee5780630b6e8f8914610310575b600080fd5b34801561024b57600080fd5b5061025f61025a3660046124cf565b610843565b6040519081526020015b60405180910390f35b34801561027e57600080fd5b5061029261028d366004612512565b6108d9565b6040519015158152602001610269565b3480156102ae57600080fd5b506102d67f000000000000000000000000000000000000000000000000000000000000000081565b6040516001600160a01b039091168152602001610269565b3480156102fa57600080fd5b5061030361092b565b604051610269919061257c565b34801561031c57600080fd5b5061029261032b36600461258f565b600e6020526000908152604090205460ff1681565b34801561034c57600080fd5b5061029261035b36600461258f565b600f6020526000908152604090205460ff1681565b34801561037c57600080fd5b5061030361038b36600461258f565b6109b9565b34801561039c57600080fd5b506102926103ab36600461258f565b60116020526000908152604090205460ff1681565b3480156103cc57600080fd5b506103e06103db36600461258f565b610a4d565b005b3480156103ee57600080fd5b506103e06103fd3660046125a8565b610a9d565b34801561040e57600080fd5b506103e061041d366004612720565b610bb7565b34801561042e57600080fd5b5061025f600a5481565b34801561044457600080fd5b506102d67f000000000000000000000000000000000000000000000000000000000000000081565b34801561047857600080fd5b506103e06104873660046127ca565b610c4e565b34801561049857600080fd5b506103e06104a73660046127e5565b610ce2565b3480156104b857600080fd5b5061025f6104c73660046127e5565b610d58565b3480156104d857600080fd5b5061025f6104e736600461258f565b600c6020526000908152604090205481565b34801561050557600080fd5b50610519610514366004612807565b610d84565b604051610269919061290d565b34801561053257600080fd5b5061029261054136600461258f565b600090815260036020526040902054151590565b6103e06105633660046125a8565b610eae565b34801561057457600080fd5b506103e061058336600461258f565b6110b7565b34801561059457600080fd5b5061025f6105a3366004612920565b611152565b3480156105b457600080fd5b506103e06105c3366004612966565b611467565b3480156105d457600080fd5b506103e06105e3366004612992565b6115b2565b3480156105f457600080fd5b5061025f61060336600461258f565b6117b3565b34801561061457600080fd5b50610303611801565b34801561062957600080fd5b506103e06106383660046129d5565b61180e565b34801561064957600080fd5b5061025f6106583660046127e5565b61181d565b34801561066957600080fd5b506103e061067836600461258f565b61183a565b34801561068957600080fd5b5061025f61069836600461258f565b60106020526000908152604090205481565b3480156106b657600080fd5b506103e06106c53660046127ca565b6118b9565b3480156106d657600080fd5b5061025f6106e536600461258f565b60009081526003602052604090205490565b34801561070357600080fd5b5061025f7f000000000000000000000000000000000000000000000000000000000000000081565b34801561073757600080fd5b5061025f61074636600461258f565b61194d565b34801561075757600080fd5b5060095461025f565b34801561076c57600080fd5b5061029261077b366004612a0c565b6001600160a01b03918216600090815260016020908152604080832093909416825291909152205460ff1690565b3480156107b557600080fd5b5061025f6107c436600461258f565b600d6020526000908152604090205481565b3480156107e257600080fd5b506103e06107f1366004612a36565b61196e565b34801561080257600080fd5b506008546102d6906001600160a01b031681565b34801561082257600080fd5b5061025f61083136600461258f565b600b6020526000908152604090205481565b60006001600160a01b0383166108b35760405162461bcd60e51b815260206004820152602a60248201527f455243313135353a2061646472657373207a65726f206973206e6f742061207660448201526930b634b21037bbb732b960b11b60648201526084015b60405180910390fd5b506000908152602081815260408083206001600160a01b03949094168352929052205490565b60006001600160e01b03198216636cdb3d1360e11b148061090a57506001600160e01b031982166303a24d0760e21b145b8061092557506301ffc9a760e01b6001600160e01b03198316145b92915050565b6004805461093890612a9b565b80601f016020809104026020016040519081016040528092919081815260200182805461096490612a9b565b80156109b15780601f10610986576101008083540402835291602001916109b1565b820191906000526020600020905b81548152906001019060200180831161099457829003601f168201915b505050505081565b6060600280546109c890612a9b565b80601f01602080910402602001604051908101604052809291908181526020018280546109f490612a9b565b8015610a415780601f10610a1657610100808354040283529160200191610a41565b820191906000526020600020905b815481529060010190602001808311610a2457829003601f168201915b50505050509050919050565b336001600160a01b037f00000000000000000000000000000000000000000000000000000000000000001614610a985760405163017bb92160e41b81523360048201526024016108aa565b600a55565b6008546001600160a01b03163314610aca57604051632e91ff8760e21b81523360048201526024016108aa565b6000828152600f6020526040902054829060ff161515600114610b00576040516305cc46e760e31b815260040160405180910390fd5b6000838152600b60205260409081902054905163a9059cbb60e01b81526001600160a01b03848116600483015260248201929092527f00000000000000000000000000000000000000000000000000000000000000009091169063a9059cbb906044016020604051808303816000875af1158015610b82573d6000803e3d6000fd5b505050506040513d601f19601f82011682018060405250810190610ba69190612acf565b610bb257610bb2612aec565b505050565b6001600160a01b038516331480610bd35750610bd3853361077b565b610c3a5760405162461bcd60e51b815260206004820152603260248201527f455243313135353a207472616e736665722063616c6c6572206973206e6f74206044820152711bdddb995c881b9bdc88185c1c1c9bdd995960721b60648201526084016108aa565b610c4785858585856119f5565b5050505050565b336001600160a01b037f00000000000000000000000000000000000000000000000000000000000000001614610c995760405163017bb92160e41b81523360048201526024016108aa565b6001600160a01b038116610cc057604051639fabe1c160e01b815260040160405180910390fd5b600880546001600160a01b0319166001600160a01b0392909216919091179055565b6008546001600160a01b03163314610d0f57604051632e91ff8760e21b81523360048201526024016108aa565b6000828152600f6020526040902054829060ff161515600114610d45576040516305cc46e760e31b815260040160405180910390fd5b506000918252600c602052604090912055565b6000828152600c6020908152604080832054600b909252822054610d7d918491611be0565b9392505050565b60608151835114610de95760405162461bcd60e51b815260206004820152602960248201527f455243313135353a206163636f756e747320616e6420696473206c656e677468604482015268040dad2e6dac2e8c6d60bb1b60648201526084016108aa565b6000835167ffffffffffffffff811115610e0557610e056125d4565b604051908082528060200260200182016040528015610e2e578160200160208202803683370190505b50905060005b8451811015610ea657610e79858281518110610e5257610e52612b02565b6020026020010151858381518110610e6c57610e6c612b02565b6020026020010151610843565b828281518110610e8b57610e8b612b02565b6020908102919091010152610e9f81612b2e565b9050610e34565b509392505050565b6000828152600f6020526040902054829060ff161515600114610ee4576040516305cc46e760e31b815260040160405180910390fd5b600a546000848152600d60205260409020548491610f0191612b47565b421115610f21576040516326ddce9160e01b815260040160405180910390fd5b600260065403610f735760405162461bcd60e51b815260206004820152601f60248201527f5265656e7472616e637947756172643a207265656e7472616e742063616c6c0060448201526064016108aa565b600260065534610fb15760405162461bcd60e51b81526020600482015260096024820152685a65726f56616c756560b81b60448201526064016108aa565b6001600160a01b038316610fd857604051639fabe1c160e01b815260040160405180910390fd5b7f00000000000000000000000000000000000000000000000000000000000000006001600160a01b031663d0e30db0346040518263ffffffff1660e01b81526004016000604051808303818588803b15801561103357600080fd5b505af1158015611047573d6000803e3d6000fd5b505050505061106783853460405180602001604052806000815250611c0e565b6040805133815234602082015285916001600160a01b038616917fdcbc1c05240f31ff3ad067ef1ee35ce4997762752e3a095284754544f4c709d7910160405180910390a3505060016006555050565b6008546001600160a01b031633146110e457604051632e91ff8760e21b81523360048201526024016108aa565b6000818152600f6020526040902054819060ff16151560011461111a576040516305cc46e760e31b815260040160405180910390fd5b6000828152600e60205260409020805460ff1916600117905561113c826117b3565b6000928352600b60205260409092209190915550565b6000848152600e6020526040812054859060ff16151582036111875760405163ec76655760e01b815260040160405180910390fd5b6000868152600f6020526040902054869060ff1615156001146111bd576040516305cc46e760e31b815260040160405180910390fd5b6001600160a01b0385166111e457604051639fabe1c160e01b815260040160405180910390fd5b336001600160a01b0385161480159061122157506001600160a01b038416600090815260016020908152604080832033845290915290205460ff16155b156112505760405163425da22160e11b81523360048201526001600160a01b03851660248201526044016108aa565b600061125d858989611d31565b60008881526011602052604081205460ff161515900361135e576112818888610d58565b9050868111156113595760006112978883612b47565b905060006112a5828b61181d565b90506112b18184612b47565b60075460405163a9059cbb60e01b81526001600160a01b039182166004820152602481018490529194507f0000000000000000000000000000000000000000000000000000000000000000169063a9059cbb906044016020604051808303816000875af1158015611326573d6000803e3d6000fd5b505050506040513d601f19601f8201168201806040525081019061134a9190612acf565b61135657611356612aec565b50505b611361565b50855b80156114065760405163a9059cbb60e01b81526001600160a01b038781166004830152602482018390527f0000000000000000000000000000000000000000000000000000000000000000169063a9059cbb906044016020604051808303816000875af11580156113d6573d6000803e3d6000fd5b505050506040513d601f19601f820116820180604052508101906113fa9190612acf565b61140657611406612aec565b604080513381526001600160a01b0388811660208301529181018990526060810183905289918716907fbbbdee62287b5bf3bee13cab60a29ad729cf38109bccbd2a986a11c99b8ca7049060800160405180910390a3979650505050505050565b336001600160a01b037f000000000000000000000000000000000000000000000000000000000000000016146114b25760405163017bb92160e41b81523360048201526024016108aa565b60968111156114d757604051631206ee7f60e01b8152600481018290526024016108aa565b806000036114f857604051636883b21160e01b815260040160405180910390fd5b6000828152600f602052604090205460ff16151560010361152c57604051631870d25960e31b815260040160405180910390fd5b81831061154c57604051631d02ec5360e11b815260040160405180910390fd5b6000828152600f60209081526040808320805460ff19166001908117909155600d8352818420969096556009805496870190557f6e1540171b6c0c960b71a7020d9f60077f6af931a8bbf590da0223dacf75c7af90950193909355601090925291902055565b6000838152600f6020526040902054839060ff1615156001146115e8576040516305cc46e760e31b815260040160405180910390fd5b600a546000858152600d6020526040902054859161160591612b47565b421115611625576040516326ddce9160e01b815260040160405180910390fd5b6002600654036116775760405162461bcd60e51b815260206004820152601f60248201527f5265656e7472616e637947756172643a207265656e7472616e742063616c6c0060448201526064016108aa565b60026006556001600160a01b0383166116a357604051639fabe1c160e01b815260040160405180910390fd5b6040516323b872dd60e01b8152336004820152306024820152604481018590527f00000000000000000000000000000000000000000000000000000000000000006001600160a01b0316906323b872dd906064016020604051808303816000875af1158015611716573d6000803e3d6000fd5b505050506040513d601f19601f8201168201806040525081019061173a9190612acf565b61174657611746612aec565b61176183868660405180602001604052806000815250611c0e565b604080513381526020810186905286916001600160a01b038616917fdcbc1c05240f31ff3ad067ef1ee35ce4997762752e3a095284754544f4c709d7910160405180910390a350506001600655505050565b6000818152600f6020526040812054829060ff1615156001146117e9576040516305cc46e760e31b815260040160405180910390fd5b60008381526003602052604090205491505b50919050565b6005805461093890612a9b565b611819338383611ec1565b5050565b600081815260106020526040812054610d7d9084906103e8611be0565b6008546001600160a01b0316331461186757604051632e91ff8760e21b81523360048201526024016108aa565b6000818152600f6020526040902054819060ff16151560011461189d576040516305cc46e760e31b815260040160405180910390fd5b506000908152601160205260409020805460ff19166001179055565b336001600160a01b037f000000000000000000000000000000000000000000000000000000000000000016146119045760405163017bb92160e41b81523360048201526024016108aa565b6001600160a01b03811661192b57604051639fabe1c160e01b815260040160405180910390fd5b600780546001600160a01b0319166001600160a01b0392909216919091179055565b6009818154811061195d57600080fd5b600091825260209091200154905081565b6001600160a01b03851633148061198a575061198a853361077b565b6119e85760405162461bcd60e51b815260206004820152602960248201527f455243313135353a2063616c6c6572206973206e6f74206f776e6572206e6f7260448201526808185c1c1c9bdd995960ba1b60648201526084016108aa565b610c478585858585611fa1565b8151835114611a575760405162461bcd60e51b815260206004820152602860248201527f455243313135353a2069647320616e6420616d6f756e7473206c656e677468206044820152670dad2e6dac2e8c6d60c31b60648201526084016108aa565b6001600160a01b038416611a7d5760405162461bcd60e51b81526004016108aa90612b5e565b33611a8c8187878787876120d9565b60005b8451811015611b72576000858281518110611aac57611aac612b02565b602002602001015190506000858381518110611aca57611aca612b02565b602090810291909101810151600084815280835260408082206001600160a01b038e168352909352919091205490915081811015611b1a5760405162461bcd60e51b81526004016108aa90612ba3565b6000838152602081815260408083206001600160a01b038e8116855292528083208585039055908b16825281208054849290611b57908490612bed565b9250508190555050505080611b6b90612b2e565b9050611a8f565b50846001600160a01b0316866001600160a01b0316826001600160a01b03167f4a39dc06d4c0dbc64b70af90fd698a233a518aa5d07e595d983b8c0526c8f7fb8787604051611bc2929190612c05565b60405180910390a4611bd8818787878787612252565b505050505050565b828202811515841585830485141716611bf857600080fd5b6001826001830304018115150290509392505050565b6001600160a01b038416611c6e5760405162461bcd60e51b815260206004820152602160248201527f455243313135353a206d696e7420746f20746865207a65726f206164647265736044820152607360f81b60648201526084016108aa565b336000611c7a856123ad565b90506000611c87856123ad565b9050611c98836000898585896120d9565b6000868152602081815260408083206001600160a01b038b16845290915281208054879290611cc8908490612bed565b909155505060408051878152602081018790526001600160a01b03808a1692600092918716917fc3d58168c5ae7397731d063d5bbf3d657854427343f4c083240f7aacaa2d0f62910160405180910390a4611d28836000898989896123f8565b50505050505050565b6001600160a01b038316611d935760405162461bcd60e51b815260206004820152602360248201527f455243313135353a206275726e2066726f6d20746865207a65726f206164647260448201526265737360e81b60648201526084016108aa565b336000611d9f846123ad565b90506000611dac846123ad565b9050611dcc838760008585604051806020016040528060008152506120d9565b6000858152602081815260408083206001600160a01b038a16845290915290205484811015611e495760405162461bcd60e51b8152602060048201526024808201527f455243313135353a206275726e20616d6f756e7420657863656564732062616c604482015263616e636560e01b60648201526084016108aa565b6000868152602081815260408083206001600160a01b038b81168086529184528285208a8703905582518b81529384018a90529092908816917fc3d58168c5ae7397731d063d5bbf3d657854427343f4c083240f7aacaa2d0f62910160405180910390a4604080516020810190915260009052611d28565b816001600160a01b0316836001600160a01b031603611f345760405162461bcd60e51b815260206004820152602960248201527f455243313135353a2073657474696e6720617070726f76616c20737461747573604482015268103337b91039b2b63360b91b60648201526084016108aa565b6001600160a01b03838116600081815260016020908152604080832094871680845294825291829020805460ff191686151590811790915591519182527f17307eab39ab6107e8899845ad3d59bd9653f200f220920489ca2b5937696c31910160405180910390a3505050565b6001600160a01b038416611fc75760405162461bcd60e51b81526004016108aa90612b5e565b336000611fd3856123ad565b90506000611fe0856123ad565b9050611ff08389898585896120d9565b6000868152602081815260408083206001600160a01b038c168452909152902054858110156120315760405162461bcd60e51b81526004016108aa90612ba3565b6000878152602081815260408083206001600160a01b038d8116855292528083208985039055908a1682528120805488929061206e908490612bed565b909155505060408051888152602081018890526001600160a01b03808b16928c821692918816917fc3d58168c5ae7397731d063d5bbf3d657854427343f4c083240f7aacaa2d0f62910160405180910390a46120ce848a8a8a8a8a6123f8565b505050505050505050565b6001600160a01b0385166121605760005b835181101561215e5782818151811061210557612105612b02565b60200260200101516003600086848151811061212357612123612b02565b6020026020010151815260200190815260200160002060008282546121489190612bed565b90915550612157905081612b2e565b90506120ea565b505b6001600160a01b038416611bd85760005b8351811015611d2857600084828151811061218e5761218e612b02565b6020026020010151905060008483815181106121ac576121ac612b02565b602002602001015190506000600360008481526020019081526020016000205490508181101561222f5760405162461bcd60e51b815260206004820152602860248201527f455243313135353a206275726e20616d6f756e74206578636565647320746f74604482015267616c537570706c7960c01b60648201526084016108aa565b6000928352600360205260409092209103905561224b81612b2e565b9050612171565b6001600160a01b0384163b15611bd85760405163bc197c8160e01b81526001600160a01b0385169063bc197c81906122969089908990889088908890600401612c33565b6020604051808303816000875af19250505080156122d1575060408051601f3d908101601f191682019092526122ce91810190612c91565b60015b61237d576122dd612cae565b806308c379a00361231657506122f1612cca565b806122fc5750612318565b8060405162461bcd60e51b81526004016108aa919061257c565b505b60405162461bcd60e51b815260206004820152603460248201527f455243313135353a207472616e7366657220746f206e6f6e20455243313135356044820152732932b1b2b4bb32b91034b6b83632b6b2b73a32b960611b60648201526084016108aa565b6001600160e01b0319811663bc197c8160e01b14611d285760405162461bcd60e51b81526004016108aa90612d54565b604080516001808252818301909252606091600091906020808301908036833701905050905082816000815181106123e7576123e7612b02565b602090810291909101015292915050565b6001600160a01b0384163b15611bd85760405163f23a6e6160e01b81526001600160a01b0385169063f23a6e619061243c9089908990889088908890600401612d9c565b6020604051808303816000875af1925050508015612477575060408051601f3d908101601f1916820190925261247491810190612c91565b60015b612483576122dd612cae565b6001600160e01b0319811663f23a6e6160e01b14611d285760405162461bcd60e51b81526004016108aa90612d54565b80356001600160a01b03811681146124ca57600080fd5b919050565b600080604083850312156124e257600080fd5b6124eb836124b3565b946020939093013593505050565b6001600160e01b03198116811461250f57600080fd5b50565b60006020828403121561252457600080fd5b8135610d7d816124f9565b6000815180845260005b8181101561255557602081850181015186830182015201612539565b81811115612567576000602083870101525b50601f01601f19169290920160200192915050565b602081526000610d7d602083018461252f565b6000602082840312156125a157600080fd5b5035919050565b600080604083850312156125bb57600080fd5b823591506125cb602084016124b3565b90509250929050565b634e487b7160e01b600052604160045260246000fd5b601f8201601f1916810167ffffffffffffffff81118282101715612610576126106125d4565b6040525050565b600067ffffffffffffffff821115612631576126316125d4565b5060051b60200190565b600082601f83011261264c57600080fd5b8135602061265982612617565b60405161266682826125ea565b83815260059390931b850182019282810191508684111561268657600080fd5b8286015b848110156126a1578035835291830191830161268a565b509695505050505050565b600082601f8301126126bd57600080fd5b813567ffffffffffffffff8111156126d7576126d76125d4565b6040516126ee601f8301601f1916602001826125ea565b81815284602083860101111561270357600080fd5b816020850160208301376000918101602001919091529392505050565b600080600080600060a0868803121561273857600080fd5b612741866124b3565b945061274f602087016124b3565b9350604086013567ffffffffffffffff8082111561276c57600080fd5b61277889838a0161263b565b9450606088013591508082111561278e57600080fd5b61279a89838a0161263b565b935060808801359150808211156127b057600080fd5b506127bd888289016126ac565b9150509295509295909350565b6000602082840312156127dc57600080fd5b610d7d826124b3565b600080604083850312156127f857600080fd5b50508035926020909101359150565b6000806040838503121561281a57600080fd5b823567ffffffffffffffff8082111561283257600080fd5b818501915085601f83011261284657600080fd5b8135602061285382612617565b60405161286082826125ea565b83815260059390931b850182019282810191508984111561288057600080fd5b948201945b838610156128a557612896866124b3565b82529482019490820190612885565b965050860135925050808211156128bb57600080fd5b506128c88582860161263b565b9150509250929050565b600081518084526020808501945080840160005b83811015612902578151875295820195908201906001016128e6565b509495945050505050565b602081526000610d7d60208301846128d2565b6000806000806080858703121561293657600080fd5b843593506020850135925061294d604086016124b3565b915061295b606086016124b3565b905092959194509250565b60008060006060848603121561297b57600080fd5b505081359360208301359350604090920135919050565b6000806000606084860312156129a757600080fd5b83359250602084013591506129be604085016124b3565b90509250925092565b801515811461250f57600080fd5b600080604083850312156129e857600080fd5b6129f1836124b3565b91506020830135612a01816129c7565b809150509250929050565b60008060408385031215612a1f57600080fd5b612a28836124b3565b91506125cb602084016124b3565b600080600080600060a08688031215612a4e57600080fd5b612a57866124b3565b9450612a65602087016124b3565b93506040860135925060608601359150608086013567ffffffffffffffff811115612a8f57600080fd5b6127bd888289016126ac565b600181811c90821680612aaf57607f821691505b6020821081036117fb57634e487b7160e01b600052602260045260246000fd5b600060208284031215612ae157600080fd5b8151610d7d816129c7565b634e487b7160e01b600052600160045260246000fd5b634e487b7160e01b600052603260045260246000fd5b634e487b7160e01b600052601160045260246000fd5b600060018201612b4057612b40612b18565b5060010190565b600082821015612b5957612b59612b18565b500390565b60208082526025908201527f455243313135353a207472616e7366657220746f20746865207a65726f206164604082015264647265737360d81b606082015260800190565b6020808252602a908201527f455243313135353a20696e73756666696369656e742062616c616e636520666f60408201526939103a3930b739b332b960b11b606082015260800190565b60008219821115612c0057612c00612b18565b500190565b604081526000612c1860408301856128d2565b8281036020840152612c2a81856128d2565b95945050505050565b6001600160a01b0386811682528516602082015260a060408201819052600090612c5f908301866128d2565b8281036060840152612c7181866128d2565b90508281036080840152612c85818561252f565b98975050505050505050565b600060208284031215612ca357600080fd5b8151610d7d816124f9565b600060033d1115612cc75760046000803e5060005160e01c5b90565b600060443d1015612cd85790565b6040516003193d81016004833e81513d67ffffffffffffffff8160248401118184111715612d0857505050505090565b8285019150815181811115612d205750505050505090565b843d8701016020828501011115612d3a5750505050505090565b612d49602082860101876125ea565b509095945050505050565b60208082526028908201527f455243313135353a204552433131353552656365697665722072656a656374656040820152676420746f6b656e7360c01b606082015260800190565b6001600160a01b03868116825285166020820152604081018490526060810183905260a060808201819052600090612dd69083018461252f565b97965050505050505056fea2646970667358221220f40976e3efe7e621b638e6ed5835c381fb489dc48bfc40c9962d6192e1f4df3d64736f6c634300080f0033a2646970667358221220d8e34e10e82403b90dc67ef6b7c5f6141fdcbca9ac4790b5ade3e496ee466e7d64736f6c634300080f0033",
    "linkReferences": {}
  },
  "methodIdentifiers": {
    "WETH()": "ad5c4648",
    "changeController(uint256,address)": "c5ba24b1",
    "changeOracle(address,address)": "4dc809ce",
    "changeTimewindow(uint256,uint256)": "39d0913b",
    "changeTreasury(address,uint256)": "97184034",
    "controller()": "f77c4791",
    "createNewMarket(uint256,address,int256,uint256,uint256,address,string)": "15355d89",
    "deployMoreAssets(uint256,uint256,uint256,uint256)": "981fed0d",
    "getVaults(uint256)": "468d16d0",
    "indexEpochs(uint256,uint256)": "424a4ab7",
    "indexVaults(uint256,uint256)": "c0c99d9b",
    "lastLocked()": "24a3c510",
    "marketIndex()": "8c7adc15",
    "owner()": "8da5cb5b",
    "renounceOwnership()": "715018a6",
    "setController(address)": "92eefe9b",
    "timeLock()": "d085835a",
    "tokenToOracle(address)": "9820c733",
    "transferOwnership(address)": "f2fde38b",
    "treasury()": "61d027b3"
  },
  "id": 33
}